:020000040000fa
:10000000f0ff0120e9040001270a0001290a00018c
:100010002d0a00012f0a0001310a00010000000032
:10002000000000000000000000000000230a0001a2
:100030002b0a000100000000230a00012d09000125
:10004000230a0001230a0001230a0001230a0001f8
:10005000230a0001230a0001230a0001230a0001e8
:10006000230a0001230a0001230a0001230a0001d8
:1000700021000001230a0001230a0001230a0001d4
:10008000230a0001230a0001230a0001b508000128
:10009000230a0001230a0001230a0001230a0001a8
:1000a000230a0001230a0001230a0001230a000198
:1000b000230a0001230a0001230a0001230a000188
:1000c000230a0001230a0001230a0001230a000178
:1000d000230a0001230a0001230a0001230a000168
:020000040000fa
:020000040004f6
:045f8800ffff000017
:020000040000fa
:020000040004f6
:045f8c0000400e843f
:020000040000fa
:020000040004f6
:045f900038fc745f06
:020000040000fa
:020000040004f6
:045f94003844101469
:020000040000fa
:020000040004f6
:045f98000300007191
:020000040000fa
:020000040004f6
:045f9c0002000000ff
:020000040000fa
:020000040004f6
:045fbc0000000010d1
:020000040000fa
:020000040100f9
:10000000f8b500bff8bc08bc9e4670473108000137
:10001000f8b500bff8bc08bc9e4670470d0800014b
:020000040000fa
:020000040100f9
:10002000704b9b7d002b00f0dc80f0b583b06d4af7
:10003000137edbb2927d12f0800f11d1694a137edc
:10004000dbb2927d12f0010f00f0bc8013f0010fc3
:1000500000f0b880644c634d644e2069217d34e02b
:1000600013f0800fead05f4b5b8b13f00703e5d0f2
:100070005d4ad3875b4b80221a7607225a831b7e08
:1000800013f0040f05d0574b9a6a1a7e12f0040f32
:10009000fad1554b1b6a002bd0d0534a516a02202b
:1000a0009847cbe7f25c8df806200133984298bf61
:1000b0000023e3606b6803f00703012b14bf9df876
:1000c0000630bdf80630ab62b9b92b7e13f0010fd4
:1000d00078d0a268e3689a4271d06a6802f0070299
:1000e000012adfd116f813208df8062006eb430213
:1000f00052788df807200133d8e700f067fc2368b9
:10010000002baad0227f32b1a2699042a5d36168a8
:1001100003209847a1e7a26990429ed1616803201d
:1001200098479ae7226a002a37d0616a3846904792
:10013000a36a0133226b934228bf00232de0a16afa
:100140002b4a02f8115002eb4102c5f30725557006
:100150002ee000f023fc236a002b2ed094f83c20e4
:1001600032b1a26b904228d3616a0020984724e004
:10017000a26b904221d1616a002098471de0337e36
:1001800013f0040f2bd0b56aa36a0133226b93429c
:1001900028bf0023e26a9a42c4d0e26a9a42eed0b3
:1001a000726802f00702012ac9d0a26a10498d5470
:1001b000a36294f83430002bcbd10127dfe7094b41
:1001c00001221a75074a137edbb2927d12f0040fea
:1001d00005d013f0040f02d0024e034cede703b03c
:1001e000f0bd7047000c004050010020800000204e
:0401f00000000020eb
:020000040000fa
:020000040100f9
:1001f4004ff08842d2f8003113f4007ffad0002384
:10020400444901334a6a12f0010f11d1b3f5fa5f80
:10021400f7d1404b5b6a13f0010f0cd13d4a536890
:1002240043f480735360536a13f0010ffbd002e070
:10023400b3f5fa5fedd2384ab2f8ba3403f0fd03ed
:10024400a2f8ba340022334901324b6a03f00303a3
:10025400032b13d0b2f5fa5ff6d12e4b5b6a03f091
:100264000303032b0dd02b4a536843f400735360ec
:10027400536a03f00303032bfad102e0b2f5fa5fe9
:10028400ebd24ff088430022c3f8b020234ac3f8ce
:10029400b02002f12b42a2f54b12a2f6ab42c3f8f6
:1002a400b02003f520631e4a1a624ff480721a606c
:1002b40001229a601a46136813f0010ffbd1194bff
:1002c40048f20902c3f8502140f201221a674ff4a0
:1002d40000429a674ff088434ff410421a66002296
:1002e4001a674ff01062c3f880200f4ac3f8c02089
:1002f40047f6fe62c3f8e0204ff03332c3f8b02073
:10030400044b5a6842f010025a604ff080721a602f
:10031400704700bf0040014100200141556699aa81
:0c032400080101c0000a0044cf010120c4
:020000040000fa
:020000040100f9
:10033000b00100201c0000000000000000000020b0
:10034000800000000000000080000020800000000d
:1003500000000000500100204000000000000000ec
:10036000cc0100200c00000000000000d80100209b
:100370000800000000000000e00100200400000070
:10038000000000009001002020000000000000009c
:10039000e40100200400000000000000f001002043
:1003a0000200000000000000f20100200200000036
:1003b00000000000f4010020020000000000000026
:1003c000f60100200200000000000000f8010020fb
:1003d0000200000000000000e8010020040000000e
:1003e000000000000001002050000000000000009c
:1003f000ec010020040000000000000000000000ec
:1004000000000000444444444444444444444444bc
:020000040000fa
:020000040100f9
:100410002de9f04700295ed00f46304b1e690024bd
:100420002f4d1a4600f1010edff8b8c0a04615e0c6
:1004300010f804a0d5f8049009f00709b9f1010fec
:1004400011bf0cf801a00cf811a00ceb410181f8d0
:1004500001809360631c01349f423ad96b6803f0ba
:100460000703012b11d09168d2f80c904b1cb342ba
:1004700028bf00239945dbd100f084fa10b1184b56
:1004800001229a752046bde8f0879168d2f80c9059
:100490004b1cb34228bf00239945edd01ef814a091
:1004a00010f8149049ea0a29d5f804a00af0070abe
:1004b000baf1010f04d00cf801909360631ccae7f5
:1004c0000cf811900ceb41014fea192981f80190c9
:1004d000f3e71c46d0e70c46cee700bf50010020f2
:0804e000000c00408000002028
:020000040000fa
:020000040100f9
:1004e80008b5194b9847194b9847eff3108172b626
:1004f800174ad2f8883043f47003c2f88830bff343
:100508004f8fbff36f8f01b962b6124a936823f019
:10051800010393601346da6812f0010ffbd10d4b0b
:1005280024225a6001229a6000f074fa0a4b23f0e0
:100538007f03074a9360094b9847094b9847094b33
:10054800984700f04ff8fee7250a0001250a000148
:1005580000ed00e00020004100000000c506000199
:08056800250a0001250a00012b
:020000040000fa
:020000040100f9
:100570001b4b1c4a1a604ff6a0029a814ff440327e
:100580005a601a46d369002bfcd1154a136843f010
:1005900002031360d369002bfcd1134b00221a62b3
:1005a0009a62da6283f8342083f83c209a63da870f
:1005b0001a609a60da601a751a779a61084b5b685c
:1005c00003f00703012b084b14bf802240221a635b
:1005d0001a61034b80229a7504229a75704700bff6
:0c05e000000c00400401204050010020ed
:020000040000fa
:020000040100f9
:1005ec0008b5002000f02cf900f0def900f0f2f96b
:1005fc000021124800f006fa0021114800f0fcf925
:10060c00104b08229a63104e104d344695e80f009b
:10061c0007c424f8023b1b0c23700e210c4b1960f1
:10062c003046fff7effe0b4c2060172105f1100050
:10063c00fff7e8fe206000f099f8fce75109000193
:10064c00f50900010023004490010020e00800019e
:08065c00e4010020e001002090
:020000040000fa
:020000040100f9
:1006640070b5144b144a0021934206d3134a002553
:10067400d2e9003123b919b970bd03f8011bf3e7be
:10068400946858180c3294b11446834208d111f07e
:10069400030318bf012303eb910102eb8102e7e797
:1006a40014f8016b03f8016befe703f8015b834275
:1006b400fbd1dde700000020000000203003000132
:020000040000fa
:020000040100f9
:1006c4000e4a38b5002313600d4a0e4c13600e4acf
:1006d4000e4d13600e4a13600e4a13600e4a5362a5
:1006e40013610123936000f0a2f900f0a0f9ac4279
:1006f40000d338bd54f8043b9847f8e7ec010020d8
:100704000c0100200c000001080100201000000171
:0c07140000010020040100201001002062
:020000040000fa
:020000040100f9
:10072000134bda6822f4e0621204120c42f0bf624a
:1007300042f40032da60bff35f8f62b60d4ae02107
:1007400082f80c134ff48050106082f813134ff4aa
:10075000002111605a6a42f480225a625a6942f0ba
:1007600010025a615a6a42f400325a62704700bf5e
:0807700000ed00e000e100e0f3
:020000040000fa
:020000040100f9
:100778000e4b1a880e4b1b88d31a9bb2132b04d925
:100788000b4b1a800b4b8022da630b4b1a880b4bee
:100798001b88d31a9bb26d2b06d9084b1a80054bc0
:1007a8000822da630122da63704700bff4010020ef
:1007b800f201002000230044f6010020f801002087
:020000040000fa
:020000040100f9
:1007c8000e4b01221a601a46136913f0010ffbd170
:1007d8000a4b4ff482621a6003221a7349f64042a8
:1007e8009a8333229a72064a0021116001225a72b2
:1007f8001a461369002bfcd1704700bf0014004053
:04080800d8010020f3
:020000040000fa
:020000040100f9
:10080c0010b5054c227832b9044b13b10448aff340
:10081c0000800123237010bdb001002000000000f7
:10082c000000000008b5034b1bb103490348aff3ac
:10083c00008008bd00000000b40100200000000092
:020000040000fa
:020000040100f9
:10084c0008b5fff7d1fc0c4a136823f49f7323f00f
:10085c00010343f01103136000f010f8fff782fe60
:10086c0000f0d8f800f04af8fff7a8ff00f078f88d
:0c087c00fff750ff08bd00bf002401443e
:020000040000fa
:020000040100f9
:100888004ff0884308225a6003f50c5300221a637c
:10089800a9225a61b9225a6010229a65a3f5985381
:0c08a80001229a640222c3f83422704737
:020000040000fa
:020000040100f9
:1008b40008b5084b5b7a63b1064a937a3321917287
:1008c40003f0ff002bb1044b1b6813b1024a5168bb
:0c08d400984708bd00140040d801002027
:020000040000fa
:020000040100f9
:1008e00048656c6c6f20576f726c64210d0a0000b4
:1008f000416e6f746865722048656c6c6f77205725
:080900006f726c642e2e2e00b4
:020000040000fa
:020000040100f9
:10090800054a002313609360044951600621116071
:10091800034a93601360704710e000e0ffc30900ca
:04092800cc010020de
:020000040000fa
:020000040100f9
:10092c0008b5064b1b68064b9a6801329a601b6827
:10093c0013b1034a5068984708bd00bf10e000e0af
:04094c00cc010020ba
:020000040000fa
:020000040100f9
:10095000044a138801331380034a13880133138038
:0c096000704700bff4010020f0010020ef
:020000040000fa
:020000040100f9
:10096c00044b01225a6308225a6320225a638022c4
:08097c005a6370470023004498
:020000040000fa
:020000040100f9
:10098400044a9368d06883423ebf024a12699b18a6
:08099400181a70475001002001
:020000040000fa
:020000040100f9
:10099c00044bd86a9b6a984282bf024a126b9b181e
:0809ac00181a704750010020e9
:020000040000fa
:020000040100f9
:1009b400044a136843f002031360136913f0020f2f
:0809c400fbd170470014004054
:020000040000fa
:020000040100f9
:1009cc0010b5034b1c69fff7d7ff013c201a10bd73
:0409dc0050010020a6
:020000040000fa
:020000040100f9
:1009e000034b00229a601a6842f001021a607047b5
:0409f00010e000e033
:020000040000fa
:020000040100f9
:1009f400024a138801331380704700bff6010020b8
:020000040000fa
:020000040100f9
:0c0a0400014b186059607047cc010020c5
:020000040000fa
:020000040100f9
:0c0a1000014b186059607047d8010020ad
:020000040000fa
:020000040100f9
:040a1c00fff722be00
:020000040000fa
:020000040100f9
:020a200070471d
:020000040000fa
:020000040100f9
:020a2200fee7ed
:020000040000fa
:020000040100f9
:020a2400704719
:020000040000fa
:020000040100f9
:020a2600fee7e9
:020000040000fa
:020000040100f9
:020a2800fee7e7
:020000040000fa
:020000040100f9
:020a2a00fee7e5
:020000040000fa
:020000040100f9
:020a2c00fee7e3
:020000040000fa
:020000040100f9
:020a2e00fee7e1
:020000040000fa
:020000040100f9
:020a3000fee7df
:020000040000fa
:020000040100f9
:020a320070470b
:00000001FF
