:020000040000fa
:10000000f0ff0120e9010001e1050001e305000125
:10001000e7050001e9050001eb0500010000000013
:10002000000000000000000000000000dd050001ed
:10003000e505000100000000dd0500010d050001df
:10004000dd050001dd050001dd050001dd05000124
:10005000dd050001dd050001dd050001dd05000114
:10006000dd050001dd050001dd050001dd05000104
:10007000dd050001dd050001dd050001dd050001f4
:10008000dd050001dd050001dd050001bd04000105
:10009000dd050001dd050001dd050001dd050001d4
:1000a000dd050001dd050001dd050001dd050001c4
:1000b000dd050001dd050001dd050001dd050001b4
:1000c000dd050001dd050001dd050001dd050001a4
:1000d000dd050001dd050001dd050001dd05000194
:020000040000fa
:020000040004f6
:045f8800ffff000017
:020000040000fa
:020000040004f6
:045f8c0000400e843f
:020000040000fa
:020000040004f6
:045f900038fc745f06
:020000040000fa
:020000040004f6
:045f94003844101469
:020000040000fa
:020000040004f6
:045f98000300007191
:020000040000fa
:020000040004f6
:045f9c0002000000ff
:020000040000fa
:020000040004f6
:045fbc0000000010d1
:020000040000fa
:020000040100f9
:10000000f8b500bff8bc08bc9e467047310400013b
:10001000f8b500bff8bc08bc9e4670470d0400014f
:020000040000fa
:020000040100f9
:100020004ff08842d2f8003113f4007ffad0002359
:10003000434901334a6a12f0010f11d1b3f5fa5f57
:10004000f7d13f4b5b6a13f0010f0cd13c4a536868
:1000500043f480735360536a13f0010ffbd002e046
:10006000b3f5fa5fedd2374ab2f8ba3403f0fd03c4
:10007000a2f8ba340022324901324b6a03f003037a
:10008000032b13d0b2f5fa5ff6d12d4b5b6a03f068
:100090000303032b0dd02a4a536843f400735360c3
:1000a000536a03f00303032bfad102e0b2f5fa5fbf
:1000b000ebd24ff088430022c3f8b020224ac3f8a5
:1000c000b02002f12b42a2f54b12a2f6ab42c3f8cc
:1000d000b02003f520631d4a1a624ff480721a6043
:1000e00001229a601a46136813f0010ffbd1184bd6
:1000f00048f20902c3f8502140f201221a674ff476
:1001000000429a674ff0884300221a661a674ff040
:100110001062c3f880200f4ac3f8c02047f6ff6280
:10012000c3f8e0204ff03332c3f8b020044b5a68d4
:1001300042f010025a604ff080721a60704700bfa0
:100140000040014100200141556699aa080101c003
:08015000000a0044cf01012068
:020000040000fa
:020000040100f9
:10015800500000201c000000000000007800002073
:1001680008000000000000008800002002000000d5
:10017800000000008a0000200200000000000000cb
:100188008c00002002000000000000008e0000200b
:1001980002000000000000009000002002000000a3
:1001a800000000006c0000200c00000000000000af
:1001b8008000002004000000000000000000002073
:1001c800500000000000000084000020040000002f
:1001d8000000000000000000000000004444444407
:020000040000fa
:020000040100f9
:1001e80008b5194b9847194b9847eff3108172b629
:1001f800174ad2f8883043f47003c2f88830bff346
:100208004f8fbff36f8f01b962b6124a936823f01c
:10021800010393601346da6812f0010ffbd10d4b0e
:1002280024225a6001229a6000f0d2f90a4b23f086
:100238007f03074a9360094b9847094b9847094b36
:10024800984700f01bf9fee7df050001df05000114
:1002580000ed00e00020004100000000d102000194
:08026800df050001df050001c4
:020000040000fa
:020000040100f9
:1002700070b5144b144a0021934206d3134a00254b
:10028000d2e9003123b919b970bd03f8011bf3e7b6
:10029000946858180c3294b11446834208d111f076
:1002a000030318bf012303eb910102eb8102e7e78f
:1002b00014f8016b03f8016befe703f8015b83426d
:1002c000fbd1dde700000020000000205801000104
:020000040000fa
:020000040100f9
:1002d0000e4a38b5002313600d4a0e4c13600e4ac7
:1002e0000e4d13600e4a13600e4a13600e4a53629d
:1002f00013610123936000f079f900f077f9ac42c3
:1003000000d338bd54f8043b9847f8e78400002038
:100310000c0000200c00000108000020100000016b
:0c0320000000002004000020100000205d
:020000040000fa
:020000040100f9
:10032c000e4b1a880e4b1b88d31a9bb2132b04d975
:10033c000b4b1a800b4b8022da630b4b1a880b4b3e
:10034c001b88d31a9bb26d2b06d9084b1a80054b10
:10035c000822da630122da63704700bf8c000020a8
:10036c008a000020002300448e0000209000002012
:020000040000fa
:020000040100f9
:10037c00104bda6822f4e0621204120c42f0bf62f5
:10038c0042f40032da60bff35f8f62b60a4ae021b2
:10039c0082f813134ff4002111605a6a42f4802240
:1003ac005a625a6942f010025a615a6a42f4003297
:0c03bc005a62704700ed00e000e100e034
:020000040000fa
:020000040100f9
:1003c8000e4b01221a601a46136913f0010ffbd174
:1003d8000a4b4ff482621a6003221a7349f64042ac
:1003e8009a8333229a72064a0021116001225a72b6
:1003f8001a461369002bfcd1704700bf0014004057
:040408007800002058
:020000040000fa
:020000040100f9
:10040c0010b5054c227832b9044b13b10448aff344
:10041c0000800123237010bd50000020000000005c
:10042c000000000008b5034b1bb103490348aff3b0
:10043c00008008bd000000005400002000000000f7
:020000040000fa
:020000040100f9
:10044c0008b5fff7e7fd0b4a136823f49f7323f0fd
:10045c00010343f01103136000f064f800f071f82d
:10046c0000f03cf8fff7aaff00f07af8fff780ffe6
:08047c0008bd00bf002401448b
:020000040000fa
:020000040100f9
:1004840008b50020fff7e0ff00f07af800f084f8e8
:100494000021064800f092f80021054800f094f885
:1004a400044b08229a63fff73ffffce75105000164
:0804b400b10500010023004422
:020000040000fa
:020000040100f9
:1004bc0008b5084b5b7a63b1064a937a3321917283
:1004cc0003f0ff002bb1044b1b6813b1024a5168b7
:0c04dc00984708bd001400407800002084
:020000040000fa
:020000040100f9
:1004e800054a002313609360044951600621116096
:1004f800034a93601360704710e000e0ffc30900ef
:040508006c00002063
:020000040000fa
:020000040100f9
:10050c0008b5064b1b68064b9a6801329a601b684b
:10051c0013b1034a5068984708bd00bf10e000e0d3
:04052c006c0000203f
:020000040000fa
:020000040100f9
:100530004ff0884308225a6003f50c5300221a63d7
:0e054000a9225a61b9225a6010229a657047aa
:020000040000fa
:020000040100f9
:02054e007047f4
:020000040000fa
:020000040100f9
:10055000044a138801331380034a1388013313803c
:0c056000704700bf8c00002088000020c5
:020000040000fa
:020000040100f9
:10056c00044b01225a6308225a6320225a638022c8
:08057c005a637047002300449c
:020000040000fa
:020000040100f9
:10058400044a136843f002031360136913f0020f63
:08059400fbd170470014004088
:020000040000fa
:020000040100f9
:10059c00034b00229a601a6842f001021a607047fd
:0405ac0010e000e07b
:020000040000fa
:020000040100f9
:1005b000024a138801331380704700bf8e00002069
:020000040000fa
:020000040100f9
:0c05c000014b1860596070477800002063
:020000040000fa
:020000040100f9
:0c05cc00014b1860596070476c00002063
:020000040000fa
:020000040100f9
:0405d800fff74abe21
:020000040000fa
:020000040100f9
:0205dc00fee738
:020000040000fa
:020000040100f9
:0205de00704764
:020000040000fa
:020000040100f9
:0205e000fee734
:020000040000fa
:020000040100f9
:0205e200fee732
:020000040000fa
:020000040100f9
:0205e400fee730
:020000040000fa
:020000040100f9
:0205e600fee72e
:020000040000fa
:020000040100f9
:0205e800fee72c
:020000040000fa
:020000040100f9
:0205ea00fee72a
:020000040000fa
:020000040100f9
:0205ec00704756
:00000001FF
