:020000040000fa
:10000000f0ff01205901000105050001070500016d
:100010000b0500010d0500010f05000100000000a7
:10002000000000000000000000000000a304000128
:100030000905000100000000a3040001a304000161
:10004000a3040001a3040001a3040001a304000110
:10005000a3040001a3040001a3040001a304000100
:10006000a3040001a3040001a3040001a3040001f0
:10007000a3040001a3040001a3040001a3040001e0
:10008000a3040001a3040001a30400011104000162
:10009000a3040001a3040001a3040001a3040001c0
:1000a000a3040001a3040001a3040001a3040001b0
:1000b000a3040001a3040001a3040001a3040001a0
:1000c000a3040001a3040001a3040001a304000190
:1000d000a3040001a3040001a3040001a304000180
:020000040000fa
:020000040004f6
:045f8800ffff000017
:020000040000fa
:020000040004f6
:045f8c0000400e843f
:020000040000fa
:020000040004f6
:045f900038fc745f06
:020000040000fa
:020000040004f6
:045f94003844101469
:020000040000fa
:020000040004f6
:045f98000300007191
:020000040000fa
:020000040004f6
:045f9c0002000000ff
:020000040000fa
:020000040004f6
:045fbc0000000010d1
:020000040000fa
:020000040100f9
:10000000f8b500bff8bc08bc9e467047c1030001ac
:10001000f8b500bff8bc08bc9e4670479d030001c0
:020000040000fa
:020000040100f9
:100020004ff08842d2f8003113f4007ffad0002359
:10003000434901334a6a12f0010f11d1b3f5fa5f57
:10004000f7d13f4b5b6a13f0010f0cd13c4a536868
:1000500043f480735360536a13f0010ffbd002e046
:10006000b3f5fa5fedd2374ab2f8ba3403f0fd03c4
:10007000a2f8ba340022324901324b6a03f003037a
:10008000032b13d0b2f5fa5ff6d12d4b5b6a03f068
:100090000303032b0dd02a4a536843f400735360c3
:1000a000536a03f00303032bfad102e0b2f5fa5fbf
:1000b000ebd24ff088430022c3f8b020224ac3f8a5
:1000c000b02002f12b42a2f54b12a2f6ab42c3f8cc
:1000d000b02003f520631d4a1a624ff480721a6043
:1000e00001229a601a46136813f0010ffbd1184bd6
:1000f00048f20902c3f8502140f201221a674ff476
:1001000000429a674ff0884300221a661a674ff040
:100110001062c3f880200f4ac3f8c02047f6ff6280
:10012000c3f8e0204ff03332c3f8b020044b5a68d4
:1001300042f010025a604ff080721a60704700bfa0
:100140000040014100200141556699aa080101c003
:08015000000a0044cf01012068
:020000040000fa
:020000040100f9
:1001580008b5194b9847194b9847eff3108172b6b9
:10016800174ad2f8883043f47003c2f88830bff3d6
:100178004f8fbff36f8f01b962b6124a936823f0ad
:10018800010393601346da6812f0010ffbd10d4b9f
:1001980024225a6001229a6000f0acf90a4b23f03d
:1001a8007f03074a9360094b9847094b9847094bc7
:1001b800984700f053f9fee7010500010105000129
:1001c80000ed00e00020004100000000b102000145
:0801d800010500010105000111
:020000040000fa
:020000040100f9
:1001e000500000201c000000000000006c000020f7
:1001f00008000000000000007c0000200200000059
:10020000000000007e00002002000000000000004e
:1002100080000020020000000000000074000020a8
:10022000040000000000000000000020500000005a
:100230000000000078000020040000000000000022
:10024000000000000000000044444444444444448e
:020000040000fa
:020000040100f9
:1002500070b5144b144a0021934206d3134a00256b
:10026000d2e9003123b919b970bd03f8011bf3e7d6
:10027000946858180c3294b11446834208d111f096
:10028000030318bf012303eb910102eb8102e7e7af
:1002900014f8016b03f8016befe703f8015b83428d
:1002a000fbd1dde70000002000000020e00100019c
:020000040000fa
:020000040100f9
:1002b0000e4a38b5002313600d4a0e4c13600e4ae7
:1002c0000e4d13600e4a13600e4a13600e4a5362bd
:1002d00013610123936000f01bf900f019f9ac429f
:1002e00000d338bd54f8043b9847f8e77800002065
:1002f0000c0000200c00000108000020100000018c
:0c0300000000002004000020100000207d
:020000040000fa
:020000040100f9
:10030c00104bda6822f4e0621204120c42f0bf6265
:10031c0042f40032da60bff35f8f62b60a4ae02122
:10032c0082f813134ff4002111605a6a42f48022b0
:10033c005a625a6942f010025a615a6a42f4003207
:0c034c005a62704700ed00e000e100e0a4
:020000040000fa
:020000040100f9
:100358000e4b01221a601a46136913f0010ffbd1e4
:100368000a4b4ff482621a6003221a7349f640421c
:100378009a8333229a72064a0021116001225a7226
:100388001a461369002bfcd1704700bf00140040c7
:040398006c000020d5
:020000040000fa
:020000040100f9
:10039c0010b5054c227832b9044b13b10448aff3b5
:1003ac0000800123237010bd5000002000000000cd
:1003bc000000000008b5034b1bb103490348aff321
:1003cc00008008bd00000000540000200000000068
:020000040000fa
:020000040100f9
:1003dc0008b5fff71ffe0a4a136823f49f7323f036
:1003ec00010343f01103136000f046f800f083f8aa
:1003fc00fff7acff00f05ef8fff782ff08bd00bf0f
:04040c000024014483
:020000040000fa
:020000040100f9
:1004100008b5084b5b7a63b1064a937a332191722f
:1004200003f0ff002bb1044b1b6813b1024a516863
:0c043000984708bd001400406c0000203c
:020000040000fa
:020000040100f9
:10043c00064b1a88064b1b88d31a9bb2c72b04d9c0
:10044c00034b1a80034b8022da6370478000002034
:08045c007e0000200023004493
:020000040000fa
:020000040100f9
:1004640008b50020fff7b8ff00f034f80021034876
:1004740000f03cf8fff7e0fffce700bfa504000133
:020000040000fa
:020000040100f9
:100484004ff0884308225a6003f50c5300221a6384
:0e049400a9225a61b9225a6010229a65704757
:020000040000fa
:020000040100f9
:0204a200fee773
:020000040000fa
:020000040100f9
:1004a400044a138801331380034a138801331380e9
:0c04b400704700bf800000207c0000208a
:020000040000fa
:020000040100f9
:1004c000044b01225a6308225a6320225a63802275
:0804d0005a6370470023004449
:020000040000fa
:020000040100f9
:1004d800044a136843f002031360136913f0020f10
:0804e800fbd170470014004035
:020000040000fa
:020000040100f9
:0c04f000014b1860596070476c00002040
:020000040000fa
:020000040100f9
:0404fc00fff7a8bea0
:020000040000fa
:020000040100f9
:02050000704742
:020000040000fa
:020000040100f9
:02050200704740
:020000040000fa
:020000040100f9
:02050400fee710
:020000040000fa
:020000040100f9
:02050600fee70e
:020000040000fa
:020000040100f9
:02050800fee70c
:020000040000fa
:020000040100f9
:02050a00fee70a
:020000040000fa
:020000040100f9
:02050c00fee708
:020000040000fa
:020000040100f9
:02050e00fee706
:020000040000fa
:020000040100f9
:02051000704732
:00000001FF
